:020000040000FA
:1000000000008A110A12E02AF200030E8301F100B7
:100010000A088A01F000040883160313B7008A1146
:100020000A1286248A110A128A110A122E228A11B1
:100030000A12831203130B11D830810083160313A5
:10004000370883120313840070088A008301710E3D
:100050008300F20E720E090083120313CA007F0898
:10006000CB004030FF004A088A110A12D2248A11BC
:100070000A1283120313CC004B084C07CA00CA179C
:100080004A087620080083120313C8008312031362
:10009000090883120313C900C910023049048312EE
:1000A0000313890083120313480883120313880083
:1000B000090883120313C800481001304804831252
:1000C00003138900090883120313C800FD30480593
:1000D000831203138900090883120313C800C81090
:1000E00002304804831203138900080083120313AB
:1000F000C60083120313090883120313C700C71035
:100100000230470483120313890083120313460845
:10011000831203138800090883120313C600FE30FC
:100120004605831203138900090883120313C600CE
:10013000FD30460583120313890009088312031357
:10014000C600C6100230460483120313890008005B
:1001500083120313BD007F08C0007E08BF007D0826
:10016000BE003D08031DB62801307620831203131C
:10017000C1018312031341083E07C2003F08031860
:10018000013EC30040080318013EC4004208FE00BF
:100190004308FF0044088A110A124C248A110A12EB
:1001A00083120313C50045080319E0284108FE0027
:1001B0003D08FF004508E12083120313C10AB92856
:1001C000080083120313BB007F08BC007E08FF00F9
:1001D0003C082C20831203133B084320080083169D
:1001E000031388018312031388018316031309087C
:1001F00083120313BA00FE303A05831603138900F5
:10020000090883120313BA00FD303A05831603135D
:10021000890083120313090883120313BA00FE3006
:100220003A05831203138900090883120313BA00E5
:10023000FD303A058312031389001430FF000030AB
:100240008A110A1218248A110A12303076200530D9
:10025000FF0000308A110A1218248A110A12303065
:1002600076200130FF0000308A110A1218248A110A
:100270000A1230307620383076200830762001306F
:100280007620423076200C3076200800831203134B
:10029000E7007F08E800831203131F14831203137F
:1002A000680C03185629831603139F13031C5B293C
:1002B000831603139F170430831203136705E900A5
:1002C0000310690CEA000310EA0C6A0C03186B298E
:1002D000831203139F12031C7029831203139F16AA
:1002E0000230831203136705E9000310690CEA006A
:1002F0006A0C03187E29831203131F12031C83291F
:10030000831203131F168312031367080139E900D0
:10031000E700670C03188F29831203139F11031C36
:100320009429831203139F15831203131F1583123D
:100330000313E701831203131F1DA1298312031363
:10034000E70A831203136708E900013A03199729A2
:1003500068080319C029831203131E0883120313AC
:10036000EA00E800E701E901831603131E0883127F
:100370000313E800E7010030E8046A08E704DF2916
:10038000831203131E0883120313E900EA0103100A
:10039000690DEB006A0DEC000310EB0DEC0D8316FC
:1003A00003131E0E0F3983120313E9000310E90C27
:1003B0000310E90C69086B04E8006C08E70083127D
:1003C00003131F10831203136808FF006708080057
:1003D00083120313E400831203131F1004308312EB
:1003E00003136405E5000310650CE6000310E60C3A
:1003F000660C0318FE29831603131F13031C032A1C
:10040000831603131F170230831203136405E500DC
:100410000310650CE600660C0318112A83120313FF
:100420009F13031C162A831203139F1783120313AF
:1004300064080139E500E400640C0318222A8312E1
:1004400003131F13031C272A831203131F1783167A
:1004500003139F111F119F141F1008008A110A1205
:1004600080248A110A1283120313A4007F08A300B8
:10047000FD002408FE001030FF0000308A110A122F
:10048000CB238A110A1283120313A4007F08A3004E
:10049000E830FD000330FE002308FF0024088A1125
:1004A0000A127C238A110A1283120313A4007F0804
:1004B000A300A500053083120313A7070318A80A99
:1004C0002708143A031D672A2808003A031DC52A85
:1004D00083120313A701A80183120313A30183123C
:1004E00003132508230203188D2A2308293EA4009C
:1004F00000300318013EA600240883120313840071
:10050000831383120313261883172A3083120313CD
:10051000800083120313A30A6F2A83120313250892
:10052000A30010308312031323020318AF2A2308F9
:10053000293EA40000300318013EA50024088312C0
:1005400003138400831383120313251883172030A9
:1005500083120313800083120313A30A912A8312C8
:100560000313B901003083120313A4002930A30040
:10057000A5012308FD002408FE000030FF00013023
:100580008A110A12A8208A110A1208008A110A1276
:10059000EF208A110A12053083120313A1001730CD
:1005A000A0008030A2002008FD002108FE002208E3
:1005B000FF0000308A110A12A8208A110A120800CE
:1005C0000930FE000530FF0080308A110A125F24D6
:1005D0008A110A1283120313CE007F08CD000B305C
:1005E000CF000530D000831203134D08D1004E0810
:1005F000D200FF30CD07031CCE035108520403196B
:10060000782B04304F07D100D201D20D5008D20709
:100610005108FE005208FF0080308A110A125F2440
:100620008A110A1283120313D4007F08D3004F08E3
:10063000FE005008FF0080308A110A125F248A11E0
:100640000A1283120313D600D2007F08D500D1000E
:1006500002304F07D100D201D20D5008D207510805
:10066000FE005208FF0080308A110A125F248A11AE
:100670000A1283120313D200D8007F08D100D700DA
:10068000831203135308D7005408D800FF30D30750
:10069000031CD403570858040319712B5508FE0096
:1006A0005608FF0080308A110A124C248A110A125F
:1006B00083120313D700510883120313840083139A
:1006C00083120313521883175708831203138000F1
:1006D00083120313D50A0319D60AD10A0319D20AC1
:1006E000402B063083120313CF070318D00AF32AD6
:1006F0008A110A12F32C080083160313A1007F0845
:10070000A0007E08A3007D08A200A401A50101307D
:10071000A600A70122082304031D922BFF30FF002F
:10072000FF30CA2B8316031322082308A800A81B36
:10073000A02B0310A20DA30D0310A60DA70D922B45
:1007400083160313260827040319C52B2308210247
:10075000031DAC2B22082002031CBC2B83160313A1
:100760002608A40727080318270FA5072208A002B8
:100770002308031C230FA102031083160313A30CE9
:10078000A20C0310A70CA60CA02B8316031324089D
:10079000FF002508080083120313DA007F08D90040
:1007A0007E08DC007D08DB00DD01DE010830DF00B3
:1007B000831203135908E0005A08E100601CE62B7D
:1007C0005B08DD075C0803185C0FDE078312031368
:1007D0005908E0005A08E1000030E11BFF30E30057
:1007E000E200611C002CE0015D08E2005E08E3000D
:1007F00000306207DD005B08E1000318610FDE07CF
:10080000831203135908E0005A08E1000310610C39
:10081000DA00600CD9000310DB0DDC0D5F03E00093
:10082000DF006008031DD82B5D08FF005E0808008C
:1008300083160313AA007F08A90083160313AB01D4
:10084000AC01831603132C08831603132A02031D1D
:100850002F2C831603132B08831603132902031C62
:100860004B2C83160313AD01AE0100308316031326
:100870002E02031D3D2C79302D020318452C8316C2
:100880000313AD0A0319AE0A352C83160313AB0A02
:100890000319AC0A212C0800003A0319532C803AA2
:1008A00003195A2C00347E08840083137F188317A1
:1008B000000808007F088A007E0882000800003ACD
:1008C0000319672C803A0319712CFF0100347E084C
:1008D000840083137F1883170008FF00840A000830
:1008E00008008A110A125A24FD00FE0FFF03FF0AB6
:1008F0008A110A125A24FC007D08FF007C080800B7
:10090000831603133408FF003508080005308312EE
:100910000313ED070318EE0A6D08143A031D932C18
:100920006E08003A031DA52C83120313ED01EE019E
:100930000030FF0001308A110A1246218A110A1282
:1009400083160313B5007F08B400080001308A1134
:100950000A12E8218A110A1208008316031381166D
:10096000080083160313B601831203130B1DBB2C5F
:1009700083160313B60A831603133608080083127E
:1009800003130B11D83081008B168B1783160313BA
:1009900081120800831603130115811401148111BB
:1009A0008116080083160313AF007F08B000B10161
:1009B0000830B200831603132F1CE02C3008B10757
:1009C000831603132F08B3000310330CAF0003107A
:1009D000300DB300B0003203B300B2003308031D82
:1009E000DA2C310808008A110A12A6248A110A1288
:1009F0008A110A12C6228A110A128A110A12CA24FC
:100A00008A110A128A110A12BF248A110A12072DAA
:100A10000800023400341F340534B4340034023486
:100A2000003421340534B8340034013400345634F1
:100A30006F346C3475346D3465343A3400340034BA
:040A4000003400344A
:02400E00323F3F
:00000001FF
