:020000040000FA
:1000000000008A150A12C329F200030E8301F100D1
:100010000A088A01F000040883120317950083126E
:1000200003130B11D83081008A150A122B218A1173
:100030000A128A110A1295258A110A128A110A12C5
:1000400094248A110A128A110A126C228A110A1245
:1000500083120317150883120313840070088A00A3
:100060008301710E8300F20E720E090083120313D6
:10007000D6007F08D5007E08D400831203179001B4
:1000800083160313EC01ED0100308A150A121521C5
:100090008A110A1283120313D7000A3A031D992802
:1000A00001305407D700D801D80D5508D807D90119
:1000B000D90D5608D9075708FE005808FF005908FF
:1000C0008A150A126B228A110A1283120313DA00AC
:1000D0000A30FF005A088A150A120E238A110A12E2
:1000E000FF0000308A150A12FB208A110A128312BF
:1000F00003135708FE005808FF0059088A150A1212
:100100006B228A110A1283120313DA000A30FF00ED
:100110005A088A150A12DD228A110A128312031361
:10012000D700FF0001308A150A12FB208A110A123B
:10013000A9280A30FF0000308A150A12FB208A1114
:100140000A120A30FF0001308A150A12FB208A11B8
:100150000A12023083120313D4070318D50A0319B5
:10016000D60A5408FE005508FF0056088A150A12E0
:100170006B228A110A1283120313D7000A30FF0080
:1001800057088A150A120E238A110A1283120313C2
:10019000DA00FF0002308A150A12FB208A110A12C7
:1001A000831203135408FE005508FF0056088A15F1
:1001B0000A126B228A110A1283120313D7000A3023
:1001C000FF0057088A150A12DD228A110A128312CB
:1001D0000313D400FF0003308A150A12FB208A1192
:1001E0000A1200308A150A1232208A110A120800F7
:1001F00083120313CF007F08CE007E08CD00831248
:100200000317900183160313EC01ED0102308A15E8
:100210000A1215218A110A1283120313D0000A3A16
:10022000031D5B2902304D07D000D101D10D4E08CE
:10023000D107D201D20D4F08D2075008FE00510855
:10024000FF0052088A150A126B228A110A128312C1
:100250000313D3000A30FF0053088A150A120E2335
:100260008A110A12FF0002308A150A12FB208A1135
:100270000A12831203135008FE005108FF005208AF
:100280008A150A126B228A110A1283120313D300F1
:100290000A30FF0053088A150A12DD228A110A1259
:1002A00083120313D000FF0003308A150A12FB20CB
:1002B0008A110A126B290A30FF0002308A150A12CD
:1002C000FB208A110A120A30FF0003308A150A1235
:1002D000FB208A110A1283120313CD0A0319CE0AD6
:1002E0000319CF0A4D08FE004E08FF004F088A157B
:1002F0000A126B228A110A1283120313D0000A30E9
:10030000FF0050088A150A120E238A110A1283125E
:100310000313D300FF0000308A150A12FB208A1154
:100320000A12831203134D08FE004E08FF004F0807
:100330008A150A126B228A110A1283120313D00043
:100340000A30FF0050088A150A12DD228A110A12AB
:1003500083120313CD00FF0001308A150A12FB201F
:100360008A110A1200308A150A1232208A110A12E2
:10037000080083120313C8007F08C7007E08C60068
:1003800001304607C900CA01CA0D4708CA07CB0198
:10039000CB0D4808CB074908FE004A08FF004B0870
:1003A0008A150A126B228A110A1283120313CC00D7
:1003B0000A30FF004C088A150A120E238A110A120D
:1003C000FF0000308A150A12FB208A110A128312DC
:1003D00003134908FE004A08FF004B088A150A1259
:1003E0006B228A110A1283120313CC000A30FF0019
:1003F0004C088A150A12DD228A110A12831203138D
:10040000C900FF0001308A150A12FB208A110A1266
:10041000023083120313C6070318C70A0319C80A58
:100420004608FE004708FF0048088A150A126B229A
:100430008A110A1283120313C9000A30FF00490807
:100440008A150A120E238A110A1283120313CC0092
:10045000FF0002308A150A12FB208A110A12831249
:1004600003134608FE004708FF0048088A150A12D1
:100470006B228A110A1283120313C9000A30FF008B
:1004800049088A150A12DD228A110A1283120313FF
:10049000C600FF0003308A150A12FB208A110A12D7
:1004A00052220800831203171008031D622A01302C
:1004B0008A150A1232208A110A1201308312031798
:1004C00090006B2A00308A150A1232208A110A1213
:1004D0008312031790010800053083120313DB0712
:1004E0000318DC0A5B08143A031D792A5C08003AF9
:1004F000031DE72A83120313DB01DC0100308312A2
:100500000313C4005D30C300C5014308FE00440866
:10051000FF0000308A110A1245248A110A12143091
:1005200083160313EC070318ED0A6C08E83A031D61
:100530009C2A6D08033A031DE72A83160313EC0176
:10054000ED018A110A12D4238A110A1283120313AD
:10055000C300033043020318E72A02308312031357
:100560008A00BB30831203134307031CBA2A831289
:1005700003138A0A8200BE2ACC2ADA2A00308312A8
:100580000313C4005D30C300C5014308FE004408E6
:10059000FF000030B921E72A003083120313C400A2
:1005A0005D30C300C5014308FE004408FF00003071
:1005B000F820E72A003083120313C4005D30C30023
:1005C000C5014308FE004408FF0000303620080043
:1005D00000308A150A1265218A110A1201308A1523
:1005E0000A1265218A110A1202308A150A1265213F
:1005F0008A110A1203308A150A1265218A110A1219
:100600000030FF0000308A150A12FB208A110A12FE
:100610000030FF0001308A150A12FB208A110A12ED
:100620000030FF0002308A150A12FB208A110A12DC
:100630000030FF0003308A150A12FB208A110A12CB
:10064000080083160313690883120313BE00BE0A51
:100650003E0883160313E900831203133E083C3A55
:10066000031D592B83160313E9016A088312031330
:10067000BE00BE0A3E0883160313EA00831203136A
:100680003E083C3A031D592B83160313EA016B08FD
:1006900083120313BE00BE0A3E0883160313EB0049
:1006A000831203133E08183A031D592B83160313B4
:1006B000EB01080083120313B4007F08B3007E0827
:1006C000B2007D08B7007C08B6007B08B500FE00CC
:1006D0003608FF0037088A150A126B228A110A129F
:1006E00083120313B800FD003208FE003308FF0038
:1006F00034088A150A125F228A110A120130831205
:1007000003133207B800B901B90D3308B907BA01AC
:10071000BA0D3408BA0701303507BB00BC01BC0D67
:100720003608BC07BD01BD0D3708BD073B08FE00FC
:100730003C08FF003D088A150A126B228A110A1232
:10074000FD00831203133808FE003908FF003A0841
:100750008A150A125F228A110A12023083120313C9
:10076000B2070318B30A0319B40A0230B507031815
:10077000B60A0319B70A3508FE003608FF00370825
:100780008A150A126B228A110A1283120313B80007
:10079000FD003208FE003308FF0034088A150A12F3
:1007A0005F228A110A120800831203171308080037
:1007B00083120313A9007F08A8007E08A7007D0804
:1007C000AC007C08AB007B08AA000130AD00270715
:1007D000AE00AF01AF0D2808AF07B001B00D29087A
:1007E000B0072E08FE002F08FF0030088A150A12F5
:1007F0006B228A110A1283120313B10001302A07F7
:10080000AE00AF01AF0D2B08AF07B001B00D2C0843
:10081000B0072E08FE002F08FF0030088A150A12C4
:100820006B228A110A12831203133106031D412C15
:100830000230A7070318A80A0319A90A2708FE000F
:100840002808FF0029088A150A126B228A110A1249
:1008500083120313AE000230AA070318AB0A031970
:10086000AC0A2A08FE002B08FF002C088A150A1281
:100870006B228A110A1283120313A7002E06031992
:10088000AD01831203132D08080083120313A30084
:100890007F08A2007E08A100831603136908831253
:1008A0000313A400FD002108FE002208FF00230816
:1008B0008A150A125F228A110A1201308312031369
:1008C0002107A400A501A50D2208A507A601A60DD4
:1008D0002308A607831603136A08FD008312031377
:1008E0002408FE002508FF0026088A150A125F2248
:1008F0008A110A12023083120313A1070318A20AF5
:100900000319A30A831603136B0883120313A400AD
:10091000FD002108FE002208FF0023088A150A12A4
:100920005F228A110A120800053083120313BF07E1
:100930000318C00A3F08143A031DA12C4008003ACE
:10094000031D8E2D83120313BF01C00103308312D8
:100950000317130203188E2D0430831203138A0029
:10096000BA30831203171307031CB92C8312031325
:100970008A0A8200BD2CE42C3A2D02308A110A1218
:100980004D278A110A1283120313A000013A031D96
:10099000D22C013083120317930083120313C10179
:1009A000C2018E2D143083120313C1070318C20A2B
:1009B0004108E83A031D8E2D4208033A031D8E2D8F
:1009C000C101C20121238E2D02308A110A124D2746
:1009D0008A110A1283120313A000013A031DF92C95
:1009E000023083120317930083120313C101C20163
:1009F0008E2D00308A110A124D278A110A12831295
:100A00000313A000013A031D1A2D831603136B086C
:100A100083120313A000A00A200883160313EB001F
:100A2000831203132008183A031D8E2D8316031317
:100A3000EB018E2D01308A110A124D278A110A12FC
:100A400083120313A000013A031D8E2D8316031396
:100A50006B0383120313A00083160313EB008312AE
:100A600003132008FF3A031D8E2D1730831603133E
:100A7000EB008E2D02308A110A124D278A110A12BC
:100A800083120313A000013A031D4E2D8312031796
:100A9000930183120313C101C2018E2D00308A110C
:100AA0000A124D278A110A1283120313A000013A79
:100AB000031D6F2D831603136A0883120313A0000E
:100AC000A00A200883160313EA00831203132008E8
:100AD0003C3A031D8E2D83160313EA018E2D01303F
:100AE0008A110A124D278A110A1283120313A000D9
:100AF000013A031D8E2D831603136A038312031319
:100B0000A00083160313EA00831203132008FF3AA0
:100B1000031D8E2D3B3083160313EA000800831655
:100B20000313E901EA01EB01080005308316031302
:100B3000BA070318BB0A3A08143A031DA22D3B0852
:100B4000003A031D4C2F83160313BA01BB01831611
:100B50000313A9010330FF008316031329088A1524
:100B60000A1261238A110A1283160313AA00AB0129
:100B70002A08B13EAC000030AD00003003182B0F46
:100B8000AD072A08B13EAA002B0803182B0F003E20
:100B9000AB00AA0A0319AB0A2A08831203138400C4
:100BA0008313831603132B18831783120313000870
:100BB00083160313AE002C088312031384008313DF
:100BC000831603132D1883172E0883120313800036
:100BD000831603132908031D032E01308312031308
:100BE000060583160313AC00AD002A088312031315
:100BF00084008313831603132B1883172D08831285
:100C000003138000402E831603132908013A031DA5
:100C1000212E023083120313060583160313AC0042
:100C200003102C0CAD002A088312031384008313D5
:100C3000831603132B1883172D08831203138000C8
:100C4000402E831603132908023A031D402E043058
:100C500083120313060583160313AC0003102C0C38
:100C6000AD000310AD0C2A08831203138400831314
:100C7000831603132B1883172D0883120313800088
:100C80000330FF008316031329088A150A12612313
:100C90008A110A1283160313AA00AB012A08B13E77
:100CA000AA00003003182B0F003EAB0002302A07C9
:100CB000AC00AD01AD0D2B08AD072C08831203135A
:100CC00084008313831603132D18831783120313D1
:100CD000000883160313AE0004302E020318452FBC
:100CE0000630831203138A007E30831603132E0707
:100CF000031C7D2E831203138A0A8200822EBD2ECE
:100D0000E62E212F831603132A088312031384006F
:100D10008313831603132B188317831203130008FE
:100D200083160313AE002E08031D452F01302A073A
:100D3000AE00AF01AF0D2B08AF072E0883120313CF
:100D400084008313831603132F188317831203134E
:100D5000000883160313B0003008031D452F2C082C
:100D60008312031384008313831603132D18831730
:100D70000130831203138000452F013083160313C3
:100D80002A07AE00AF01AF0D2B08AF072E08831264
:100D9000031384008313831603132F1883178312FE
:100DA0000313000883160313B0003008031D452FFA
:100DB0002C088312031384008313831603132D1846
:100DC00083170230831203138000452F8316031309
:100DD0002A088312031384008313831603132B182A
:100DE000831783120313000883160313AE00013A1E
:100DF000031D452F01302A07AE00AF01AF0D2B08B0
:100E0000AF072E0883120313840083138316031382
:100E10002F18831783120313000883160313B000DF
:100E2000013A031D452F2C088312031384008313FA
:100E3000831603132D1883170330831203138000C6
:100E4000452F83160313AA0A0319AB0A2A08831233
:100E5000031384008313831603132B188317831241
:100E60000313000883160313AE00013A031D452F38
:100E70002C088312031384008313831603132D1885
:100E80008317003083120313800083160313A90A0B
:100E900003302902031CAA2D080083160313A500A2
:100EA0000330FF0025088A150A1261238A110A12ED
:100EB00083160313A600A7012608B13EA500003043
:100EC000A80000300318270FA8070230A507031851
:100ED000A80A2508831203138400831383160313BF
:100EE0002818831783120313000883160313A60020
:100EF000080083160313060883160313A0002010AE
:100F0000013020048316031386000608831603139A
:100F1000A000A010023020048316031386000608E8
:100F200083160313A000201104302004831603133A
:100F3000860083160313A0010330FF0083160313FA
:100F400020088A150A1261238A110A1283160313D4
:100F5000A100A2012108B13EA3000030A40000308E
:100F60000318220FA407230883120313840083139A
:100F70008316031324188317013083120313800090
:100F8000831603132108B13EA3000030A4002208F9
:100F90000318220FA407A30A0319A40A2308831223
:100FA000031384008313831603132418831701305B
:100FB000831203138000831603132108B13EA1009E
:100FC00022080318220F003EA2000230A1070318D6
:100FD000A20A2108831203138400831383160313C8
:100FE0002218831700308312031380008316031323
:100FF000A00A03302002031C9C2F08000034003498
:1010000083160313CB007F08CC000030FF000030B4
:1010100036200030FF00013036200030FF00023063
:1010200036200030FF0003303620831603134C08AF
:10103000D03ECC0000300318013ECD004C08831296
:10104000031384008313831603134D18831783122D
:101050000313000888000130FF00831603134B08B8
:10106000362008008312031792000800831603132A
:10107000C7007F08C800043047020318AB280830B7
:10108000831203138A004D30831603134707031C92
:101090004C28831203138A0A82005128612874287D
:1010A0009B2883120313060883160313C7004712F5
:1010B000480EF039C900CA004704831203138600A2
:1010C000AB2883120313060883160313C700C71245
:1010D000480EF039C9000310C90D4908CA00470479
:1010E000831203138600AB288312031306088316AA
:1010F0000313C7004713480EF039C9000310C90D88
:101100000310C90D4908CA0047048312031386005F
:10111000080883160313C700C71383120317120CA2
:1011200083160313C901C90C4908CA004704831276
:1011300003138800AB2883120313060883160313D6
:10114000C700C713480CC901C90C4908C8004704A7
:10115000831203138600080083160313C500C6011B
:10116000043045020318F7280830831203138A005D
:10117000C230831603134507031CC12883120313CF
:101180008A0A8200C628D128DE28ED281030831272
:101190000313060583160313C500450E0F39C60059
:1011A000F728203083120313060583160313C500A6
:1011B000450E0F39C6000310C60CF72840308312C5
:1011C0000313060583160313C500450E0F39C60029
:1011D0000310C60C0310C60CF728803083120313CB
:1011E000060583160313C500450DC601C60D8316FB
:1011F00003134608080083160313C2007F08C300C8
:1012000042086C3EC20000300318013EC400420890
:101210008312031384008313831603134418831764
:101220004308831203138000080083160313C000D1
:101230006C3EC00000300318013EC100400883121C
:101240000313840083138316031341188317831237
:10125000031300080800053083160313CE07031894
:10126000CF0A4E08053A031D38294F08003A031DDE
:10127000642983160313CE01CF01831203171108CB
:101280006C3E83160313BE0000300318013EBF00FE
:101290003E088312031384008313831603133F183D
:1012A0008317831203130008FF008312031711082A
:1012B0000020831203171108033A031D61299101CD
:1012C000642983120317910A080083160313BC00D4
:1012D0008316031388010A30FF00831603133C08AA
:1012E00000200430831603133C020318B829093088
:1012F000831203138A008530831603133C07031CF3
:101300008429831203138A0A820089299529A12935
:10131000AD2983160313060883160313BD00EF30AF
:101320003D05831603138600B829831603130608A8
:1013300083160313BD00DF303D05831603138600BB
:10134000B82983160313060883160313BD00BF30A4
:101350003D05831603138600B82983160313060878
:1013600083160313BD007F303D05831603138600EB
:101370000030FF00831603133C088A150A1236203A
:101380008A150A1208009F30FE000A30FF008030E4
:101390008A150A127E228A150A1283120313E100AB
:1013A0007F08E000A130E2000A30E300831203135B
:1013B0006008E4006108E500FF30E007031CE1037A
:1013C0006408650403195B2A04306207E400E50140
:1013D000E50D6308E5076408FE006508FF0080303E
:1013E0008A150A127E228A150A1283120313E70055
:1013F0007F08E6006208FE006308FF0080308A155F
:101400000A127E228A150A1283120313E900E500EC
:101410007F08E800E40002306207E400E501E50D22
:101420006308E5076408FE006508FF0080308A1540
:101430000A127E228A150A1283120313E500EB00BA
:101440007F08E400EA00831203136608EA006708D5
:10145000EB00FF30E607031CE7036A086B0403197F
:10146000542A6808FE006908FF0080308A150A12B5
:101470006B228A150A1283120313EA00640883128E
:1014800003138400831383120313651883176A08F8
:1014900083120313800083120313E80A0319E90A75
:1014A000E40A0319E50A232A063083120313E2072C
:1014B0000318E30AD6298A150A12822B0800003A7B
:1014C0000319632A08007E08840083137F1883179A
:1014D0007D0880000800003A0319722A803A031937
:1014E000792A00347E08840083137F18831700084C
:1014F00008007F088A007E0882000800003A03196D
:10150000862A803A0319902AFF0100347E0884005D
:1015100083137F1883170008FF00840A000808005F
:101520008A150A127922FD00FE0FFF03FF0A8A15B1
:101530000A127922FC007D08FF007C0808000A34AA
:101540000034AF340B34EE34003401340034B034A2
:101550000B341034013401340034FE340734EC34DD
:101560000034023400349D340B34D03400340B3456
:101570000034B1340B341134013401340034A83454
:101580000B346C34003404340034B2340B34123471
:10159000013401340034AC340B34E9340034033406
:1015A0000034B3340B341334013401340034B43414
:1015B0000B34163401340134003483160313DB007A
:1015C0007F08DC00DD010130DE005C08031DEA2A33
:1015D000FF300D2B831603135C08DF00DF1BF52A99
:1015E0000310DC0D0310DE0DEA2A0030831603130E
:1015F0005E0403190A2B5C085B02031C032B5E08C4
:10160000DD075C08DB02031083160313DC0C0310F8
:10161000DE0CF52A831603135D08080083160313F6
:10162000E5007F08E6006608031D182BFF303B2B02
:10163000013083160313E700831603136608E800DE
:10164000E81B262B0310E60DE70A1C2B003083163F
:10165000031367040319382B66086502031C322B39
:101660006608E502031083160313E60CE703262B36
:1016700083160313650808008316031381160800F8
:10168000831203179401831203130B1D4A2B831239
:101690000317940A83120317140808008312031314
:1016A0000B11D83081008B168B1783160313811210
:1016B000080083160313011581140114811181168A
:1016C000080083160313E0007F08E100E201083000
:1016D000E30083160313601C6F2B6108E207831677
:1016E00003136008E4000310640CE0000310610DB4
:1016F000E400E1006303E400E3006408031D692BD8
:10170000620808008A110A1279278A150A128A11BA
:101710000A12E8228A150A128A110A128F258A15DE
:101720000A128A150A1259238A150A128A150A12F0
:101730004E238A150A129B2B08003F3406345B3473
:101740004F3466346D347D3407347F346F34003465
:101750000A340034003400340034003400340034DF
:0A176000003400340034003400347B
:02400E00323F3F
:00000001FF
